{
  "contractName": "ECRecoverTests",
  "abi": [
    {
      "inputs": [
        {
          "internalType": "bytes",
          "name": "input",
          "type": "bytes"
        }
      ],
      "name": "ecrecover",
      "outputs": [
        {
          "internalType": "bytes",
          "name": "",
          "type": "bytes"
        }
      ],
      "stateMutability": "nonpayable",
      "type": "function"
    }
  ],
  "bytecode": "0x6080604052348015600e575f80fd5b506103738061001c5f395ff3fe608060405234801561000f575f80fd5b5060043610610029575f3560e01c8063a13e42c81461002d575b5f80fd5b61004760048036038101906100429190610226565b61005d565b60405161005491906102cd565b60405180910390f35b60605f600190505f808273ffffffffffffffffffffffffffffffffffffffff168560405161008b9190610327565b5f604051808303815f865af19150503d805f81146100c4576040519150601f19603f3d011682016040523d82523d5f602084013e6100c9565b606091505b5091509150809350505050919050565b5f604051905090565b5f80fd5b5f80fd5b5f80fd5b5f80fd5b5f601f19601f8301169050919050565b7f4e487b71000000000000000000000000000000000000000000000000000000005f52604160045260245ffd5b610138826100f2565b810181811067ffffffffffffffff8211171561015757610156610102565b5b80604052505050565b5f6101696100d9565b9050610175828261012f565b919050565b5f67ffffffffffffffff82111561019457610193610102565b5b61019d826100f2565b9050602081019050919050565b828183375f83830152505050565b5f6101ca6101c58461017a565b610160565b9050828152602081018484840111156101e6576101e56100ee565b5b6101f18482856101aa565b509392505050565b5f82601f83011261020d5761020c6100ea565b5b813561021d8482602086016101b8565b91505092915050565b5f6020828403121561023b5761023a6100e2565b5b5f82013567ffffffffffffffff811115610258576102576100e6565b5b610264848285016101f9565b91505092915050565b5f81519050919050565b5f82825260208201905092915050565b8281835e5f83830152505050565b5f61029f8261026d565b6102a98185610277565b93506102b9818560208601610287565b6102c2816100f2565b840191505092915050565b5f6020820190508181035f8301526102e58184610295565b905092915050565b5f81905092915050565b5f6103018261026d565b61030b81856102ed565b935061031b818560208601610287565b80840191505092915050565b5f61033282846102f7565b91508190509291505056fea2646970667358221220fd06ce2d2c65eed9cfb905a8856db06485704a3e7b9e4561d7f28787aa6d775b64736f6c63430008190033",
  "immutableReferences": {},
  "source": "// SPDX-License-Identifier: MIT \n\npragma solidity >=0.8.2 <0.9.0;\n\ncontract ECRecoverTests {\n    function ecrecover(bytes memory input) public returns(bytes memory) {\n        address ecrecoverAddress = address(0x0000000000000000000000000000000000000001);\n        (bool success, bytes memory returnData) = ecrecoverAddress.call(input);\n        return returnData;\n    }\n}\n",
  "sourcePath": "/home/bob/polkadot-sdk-solochain-template/evm-tests/contracts/ECRecoverTests.sol",
  "compiler": {
    "name": "solc",
    "version": "0.8.25+commit.b61c2a91.Emscripten.clang"
  },
  "schemaVersion": "3.4.16",
  "updatedAt": "2025-05-20T19:29:48.024Z",
  "devdoc": {
    "kind": "dev",
    "methods": {},
    "version": 1
  },
  "userdoc": {
    "kind": "user",
    "methods": {},
    "version": 1
  }
}