{
  "contractName": "ExplicitRevertReason",
  "abi": [
    {
      "inputs": [
        {
          "internalType": "uint256",
          "name": "a",
          "type": "uint256"
        }
      ],
      "name": "max10",
      "outputs": [
        {
          "internalType": "uint256",
          "name": "",
          "type": "uint256"
        }
      ],
      "stateMutability": "nonpayable",
      "type": "function"
    }
  ],
  "bytecode": "0x6080604052348015600e575f80fd5b506102088061001c5f395ff3fe608060405234801561000f575f80fd5b5060043610610029575f3560e01c80638361ff9c1461002d575b5f80fd5b610047600480360381019061004291906100e1565b61005d565b604051610054919061011b565b60405180910390f35b5f600a8211156100a2576040517f08c379a0000000000000000000000000000000000000000000000000000000008152600401610099906101b4565b60405180910390fd5b819050919050565b5f80fd5b5f819050919050565b6100c0816100ae565b81146100ca575f80fd5b50565b5f813590506100db816100b7565b92915050565b5f602082840312156100f6576100f56100aa565b5b5f610103848285016100cd565b91505092915050565b610115816100ae565b82525050565b5f60208201905061012e5f83018461010c565b92915050565b5f82825260208201905092915050565b7f56616c7565206d757374206e6f742062652067726561746572207468616e20315f8201527f302e000000000000000000000000000000000000000000000000000000000000602082015250565b5f61019e602283610134565b91506101a982610144565b604082019050919050565b5f6020820190508181035f8301526101cb81610192565b905091905056fea264697066735822122013e62bb8344334e88afebe74ac44fa210c32a75e483c8d1f2b3fc8cd48b9bfa764736f6c63430008190033",
  "immutableReferences": {},
  "source": "// SPDX-License-Identifier: MIT \n\npragma solidity >=0.8.2 <0.9.0;\n\ncontract ExplicitRevertReason {\n\t\tfunction max10(uint256 a) public returns (uint256) {\n\t\t\tif (a > 10)\n\t\t\t\trevert(\"Value must not be greater than 10.\");\n\t\t\treturn a;\n\t\t}\n}\n",
  "sourcePath": "/home/bob/polkadot-sdk-solochain-template/evm-tests/contracts/ExplicitRevertReason.sol",
  "compiler": {
    "name": "solc",
    "version": "0.8.25+commit.b61c2a91.Emscripten.clang"
  },
  "schemaVersion": "3.4.16",
  "updatedAt": "2025-05-20T19:29:48.025Z",
  "devdoc": {
    "kind": "dev",
    "methods": {},
    "version": 1
  },
  "userdoc": {
    "kind": "user",
    "methods": {},
    "version": 1
  }
}