{
  "contractName": "ForceGasLimit",
  "abi": [
    {
      "inputs": [],
      "name": "number",
      "outputs": [
        {
          "internalType": "uint256",
          "name": "",
          "type": "uint256"
        }
      ],
      "stateMutability": "view",
      "type": "function"
    },
    {
      "inputs": [
        {
          "internalType": "uint256",
          "name": "require_gas",
          "type": "uint256"
        }
      ],
      "name": "force_gas",
      "outputs": [
        {
          "internalType": "uint256",
          "name": "",
          "type": "uint256"
        }
      ],
      "stateMutability": "nonpayable",
      "type": "function"
    }
  ],
  "bytecode": "0x6080604052348015600e575f80fd5b506102998061001c5f395ff3fe608060405234801561000f575f80fd5b5060043610610034575f3560e01c80638381f58a1461003857806389d6ec6c14610056575b5f80fd5b610040610086565b60405161004d9190610105565b60405180910390f35b610070600480360381019061006b919061014c565b61008b565b60405161007d9190610105565b60405180910390f35b5f5481565b5f815a116100ce576040517f08c379a00000000000000000000000000000000000000000000000000000000081526004016100c5906101d1565b60405180910390fd5b5f808154809291906100df9061021c565b91905055505f549050919050565b5f819050919050565b6100ff816100ed565b82525050565b5f6020820190506101185f8301846100f6565b92915050565b5f80fd5b61012b816100ed565b8114610135575f80fd5b50565b5f8135905061014681610122565b92915050565b5f602082840312156101615761016061011e565b5b5f61016e84828501610138565b91505092915050565b5f82825260208201905092915050565b7f6e6f7420656e6f756768206761730000000000000000000000000000000000005f82015250565b5f6101bb600e83610177565b91506101c682610187565b602082019050919050565b5f6020820190508181035f8301526101e8816101af565b9050919050565b7f4e487b71000000000000000000000000000000000000000000000000000000005f52601160045260245ffd5b5f610226826100ed565b91507fffffffffffffffffffffffffffffffffffffffffffffffffffffffffffffffff8203610258576102576101ef565b5b60018201905091905056fea2646970667358221220df5a3bec94dcf10f662c8a135305388dc596dbb13366a1710921fe8e3c23143264736f6c63430008190033",
  "immutableReferences": {},
  "source": "// SPDX-License-Identifier: MIT\n\npragma solidity ^0.8.0;\n\ncontract ForceGasLimit  {\n    uint public number;\n    function force_gas(uint require_gas) public returns (uint) {\n        require(gasleft() > require_gas, \"not enough gas\");\n        number++;\n        return number;\n    }\n}",
  "sourcePath": "/home/bob/polkadot-sdk-solochain-template/evm-tests/contracts/ForceGasLimit.sol",
  "compiler": {
    "name": "solc",
    "version": "0.8.25+commit.b61c2a91.Emscripten.clang"
  },
  "schemaVersion": "3.4.16",
  "updatedAt": "2025-05-20T19:28:54.983Z",
  "devdoc": {
    "kind": "dev",
    "methods": {},
    "version": 1
  },
  "userdoc": {
    "kind": "user",
    "methods": {},
    "version": 1
  }
}