{
  "contractName": "InvalidOpcode",
  "abi": [
    {
      "inputs": [],
      "name": "number",
      "outputs": [
        {
          "internalType": "uint256",
          "name": "",
          "type": "uint256"
        }
      ],
      "stateMutability": "view",
      "type": "function"
    },
    {
      "inputs": [],
      "name": "call",
      "outputs": [],
      "stateMutability": "nonpayable",
      "type": "function"
    }
  ],
  "bytecode": "0x6080604052348015600e575f80fd5b5060d280601a5f395ff3fe6080604052348015600e575f80fd5b50600436106030575f3560e01c806328b5e32b1460345780638381f58a14603c575b5f80fd5b603a6056565b005b6042606a565b604051604d91906085565b60405180910390f35b60015f81905550619c405a1015606857fe5b565b5f5481565b5f819050919050565b607f81606f565b82525050565b5f60208201905060965f8301846078565b9291505056fea264697066735822122004a9c802104582337b5493fe65c4ce9a51c8116a0c517fa3d82ecd3e6e85485764736f6c63430008190033",
  "immutableReferences": {},
  "source": "// SPDX-License-Identifier: MIT \n\npragma solidity >=0.8.0;\n\ncontract InvalidOpcode {\n    uint public number;\n\n    function call() public  {\n        number = 1;\n        if (gasleft() < 40000 ){\n            assembly {\n                // Calls the INVALID opcode (0xFE)\n                invalid()\n            }\n        }\n    }\n}\n",
  "sourcePath": "/home/bob/polkadot-sdk-solochain-template/evm-tests/contracts/InvalidOpcode.sol",
  "compiler": {
    "name": "solc",
    "version": "0.8.25+commit.b61c2a91.Emscripten.clang"
  },
  "schemaVersion": "3.4.16",
  "updatedAt": "2025-05-20T19:29:48.026Z",
  "devdoc": {
    "kind": "dev",
    "methods": {},
    "version": 1
  },
  "userdoc": {
    "kind": "user",
    "methods": {},
    "version": 1
  }
}