{
  "contractName": "ReentrancyProtected",
  "abi": [
    {
      "stateMutability": "payable",
      "type": "receive"
    },
    {
      "inputs": [],
      "name": "nonReentrantMethod",
      "outputs": [],
      "stateMutability": "nonpayable",
      "type": "function"
    },
    {
      "inputs": [],
      "name": "test",
      "outputs": [],
      "stateMutability": "nonpayable",
      "type": "function"
    }
  ],
  "bytecode": "0x6080604052348015600e575f80fd5b5061034f8061001c5f395ff3fe60806040526004361061002c575f3560e01c8063d247d34f1461008e578063f8a8fd6d146100a45761008a565b3661008a573073ffffffffffffffffffffffffffffffffffffffff1663d247d34f6040518163ffffffff1660e01b81526004015f604051808303815f87803b158015610076575f80fd5b505af1158015610088573d5f803e3d5ffd5b005b5f80fd5b348015610099575f80fd5b506100a26100ba565b005b3480156100af575f80fd5b506100b86101f2565b005b5f6100e47fdcb51ba0d43ef2c357eef48fbe953503faee8dce5ac87efb01aecad42d7420cf61024f565b14610124576040517f08c379a000000000000000000000000000000000000000000000000000000000815260040161011b906102ba565b60405180910390fd5b61014f7fdcb51ba0d43ef2c357eef48fbe953503faee8dce5ac87efb01aecad42d7420cf6001610259565b5f803373ffffffffffffffffffffffffffffffffffffffff1660405161017490610305565b5f604051808303815f865af19150503d805f81146101ad576040519150601f19603f3d011682016040523d82523d5f602084013e6101b2565b606091505b5091509150816101c457805181602001fd5b50506101f07fdcb51ba0d43ef2c357eef48fbe953503faee8dce5ac87efb01aecad42d7420cf5f610259565b565b3073ffffffffffffffffffffffffffffffffffffffff1663d247d34f6040518163ffffffff1660e01b81526004015f604051808303815f87803b158015610237575f80fd5b505af1158015610249573d5f803e3d5ffd5b50505050565b5f815c9050919050565b80825d5050565b5f82825260208201905092915050565b7f5265656e7472616e742063616c6c2064657465637465642e00000000000000005f82015250565b5f6102a4601883610260565b91506102af82610270565b602082019050919050565b5f6020820190508181035f8301526102d181610298565b9050919050565b5f81905092915050565b50565b5f6102f05f836102d8565b91506102fb826102e2565b5f82019050919050565b5f61030f826102e5565b915081905091905056fea2646970667358221220bc1870f7b92e3c56a917b76975aa084ef3ff650d75b051c0c993cc4e7955799f64736f6c63430008190033",
  "immutableReferences": {},
  "source": "// SPDX-License-Identifier: MIT\npragma solidity ^0.8.24;\n\ncontract ReentrancyProtected {\n    // A constant key for the reentrancy guard stored in Transient Storage.\n    // This acts as a unique identifier for the reentrancy lock.\n    bytes32 constant REENTRANCY_GUARD = keccak256(\"REENTRANCY_GUARD\");\n\n    // Modifier to prevent reentrant calls.\n    // It checks if the reentrancy guard is set (indicating an ongoing execution)\n    // and sets the guard before proceeding with the function execution.\n    // After the function executes, it resets the guard to allow future calls.\n    modifier nonReentrant() {\n        // Ensure the guard is not set (i.e., no ongoing execution).\n        require(tload(REENTRANCY_GUARD) == 0, \"Reentrant call detected.\");\n\n        // Set the guard to block reentrant calls.\n        tstore(REENTRANCY_GUARD, 1);\n\n        _; // Execute the function body.\n\n        // Reset the guard after execution to allow future calls.\n        tstore(REENTRANCY_GUARD, 0);\n    }\n\n    // Uses inline assembly to access the Transient Storage's tstore operation.\n    function tstore(bytes32 location, uint value) private {\n        assembly {\n            tstore(location, value)\n        }\n    }\n\n    // Uses inline assembly to access the Transient Storage's tload operation.\n    // Returns the value stored at the given location.\n    function tload(bytes32 location) private returns (uint value) {\n        assembly {\n            value := tload(location)\n        }\n    }\n\n    function nonReentrantMethod() public nonReentrant() {\n        (bool success, bytes memory result) = msg.sender.call(\"\");\n        if (!success) {\n            assembly {\n                revert(add(32, result), mload(result))\n            }\n        }\n    }\n    \n    function test() external {\n        this.nonReentrantMethod();\n    }  \n\n    receive() external payable {\n        this.nonReentrantMethod();\n    }   \n}",
  "sourcePath": "/home/bob/polkadot-sdk-solochain-template/evm-tests/contracts/eip1153.sol",
  "compiler": {
    "name": "solc",
    "version": "0.8.25+commit.b61c2a91.Emscripten.clang"
  },
  "schemaVersion": "3.4.16",
  "updatedAt": "2025-05-20T19:28:54.986Z",
  "devdoc": {
    "kind": "dev",
    "methods": {},
    "version": 1
  },
  "userdoc": {
    "kind": "user",
    "methods": {},
    "version": 1
  }
}