{
  "contractName": "StateOverrideTest",
  "abi": [
    {
      "inputs": [
        {
          "internalType": "uint256",
          "name": "intialAmount",
          "type": "uint256"
        }
      ],
      "stateMutability": "payable",
      "type": "constructor"
    },
    {
      "inputs": [],
      "name": "MAX_ALLOWED",
      "outputs": [
        {
          "internalType": "uint256",
          "name": "",
          "type": "uint256"
        }
      ],
      "stateMutability": "view",
      "type": "function"
    },
    {
      "inputs": [
        {
          "internalType": "address",
          "name": "",
          "type": "address"
        },
        {
          "internalType": "address",
          "name": "",
          "type": "address"
        }
      ],
      "name": "allowance",
      "outputs": [
        {
          "internalType": "uint256",
          "name": "",
          "type": "uint256"
        }
      ],
      "stateMutability": "view",
      "type": "function"
    },
    {
      "inputs": [],
      "name": "availableFunds",
      "outputs": [
        {
          "internalType": "uint256",
          "name": "",
          "type": "uint256"
        }
      ],
      "stateMutability": "view",
      "type": "function"
    },
    {
      "inputs": [],
      "name": "getBalance",
      "outputs": [
        {
          "internalType": "uint256",
          "name": "",
          "type": "uint256"
        }
      ],
      "stateMutability": "view",
      "type": "function"
    },
    {
      "inputs": [],
      "name": "getSenderBalance",
      "outputs": [
        {
          "internalType": "uint256",
          "name": "",
          "type": "uint256"
        }
      ],
      "stateMutability": "view",
      "type": "function"
    },
    {
      "inputs": [
        {
          "internalType": "address",
          "name": "from",
          "type": "address"
        },
        {
          "internalType": "address",
          "name": "who",
          "type": "address"
        }
      ],
      "name": "getAllowance",
      "outputs": [
        {
          "internalType": "uint256",
          "name": "",
          "type": "uint256"
        }
      ],
      "stateMutability": "view",
      "type": "function"
    },
    {
      "inputs": [
        {
          "internalType": "address",
          "name": "who",
          "type": "address"
        },
        {
          "internalType": "uint256",
          "name": "amount",
          "type": "uint256"
        }
      ],
      "name": "setAllowance",
      "outputs": [],
      "stateMutability": "nonpayable",
      "type": "function"
    }
  ],
  "bytecode": "0x608060405260035f5560405161050938038061050983398181016040528101906027919060a5565b3360035f6101000a81548173ffffffffffffffffffffffffffffffffffffffff021916908373ffffffffffffffffffffffffffffffffffffffff160217905550806001819055505060cb565b5f80fd5b5f819050919050565b6087816077565b81146090575f80fd5b50565b5f81519050609f816080565b92915050565b5f6020828403121560b75760b66073565b5b5f60c2848285016093565b91505092915050565b610431806100d85f395ff3fe608060405234801561000f575f80fd5b506004361061007b575f3560e01c806346fcff4c1161005957806346fcff4c146100e95780639a6a623714610107578063dd62ed3e14610125578063ff18253b146101555761007b565b80630af4187d1461007f57806312065fe0146100af578063310ec4a7146100cd575b5f80fd5b61009960048036038101906100949190610324565b610173565b6040516100a6919061037a565b60405180910390f35b6100b76101f5565b6040516100c4919061037a565b60405180910390f35b6100e760048036038101906100e291906103bd565b6101fc565b005b6100f161027d565b6040516100fe919061037a565b60405180910390f35b61010f610283565b60405161011c919061037a565b60405180910390f35b61013f600480360381019061013a9190610324565b610288565b60405161014c919061037a565b60405180910390f35b61015d6102a8565b60405161016a919061037a565b60405180910390f35b5f60025f8473ffffffffffffffffffffffffffffffffffffffff1673ffffffffffffffffffffffffffffffffffffffff1681526020019081526020015f205f8373ffffffffffffffffffffffffffffffffffffffff1673ffffffffffffffffffffffffffffffffffffffff1681526020019081526020015f2054905092915050565b5f47905090565b8060025f3373ffffffffffffffffffffffffffffffffffffffff1673ffffffffffffffffffffffffffffffffffffffff1681526020019081526020015f205f8473ffffffffffffffffffffffffffffffffffffffff1673ffffffffffffffffffffffffffffffffffffffff1681526020019081526020015f20819055505050565b60015481565b5f5481565b6002602052815f5260405f20602052805f5260405f205f91509150505481565b5f3373ffffffffffffffffffffffffffffffffffffffff1631905090565b5f80fd5b5f73ffffffffffffffffffffffffffffffffffffffff82169050919050565b5f6102f3826102ca565b9050919050565b610303816102e9565b811461030d575f80fd5b50565b5f8135905061031e816102fa565b92915050565b5f806040838503121561033a576103396102c6565b5b5f61034785828601610310565b925050602061035885828601610310565b9150509250929050565b5f819050919050565b61037481610362565b82525050565b5f60208201905061038d5f83018461036b565b92915050565b61039c81610362565b81146103a6575f80fd5b50565b5f813590506103b781610393565b92915050565b5f80604083850312156103d3576103d26102c6565b5b5f6103e085828601610310565b92505060206103f1858286016103a9565b915050925092905056fea26469706673582212201a3c745e57205bb044023f7ba2877942e6d5d9d4bd4cec4da4809d2345e3a27164736f6c63430008190033",
  "immutableReferences": {},
  "source": "// SPDX-License-Identifier: GPL-3.0-only\npragma solidity >=0.8.0;\n\n/// @notice Smart contract to help test state override\ncontract StateOverrideTest {\n    /// @notice The maximum allowed value\n    uint256 public MAX_ALLOWED = 3;\n    uint256 public availableFunds;\n    mapping(address => mapping(address => uint256)) public allowance;\n\n    address owner;\n\n    constructor(uint256 intialAmount) payable {\n        owner = msg.sender;\n        availableFunds = intialAmount;\n    }\n\n    function getBalance() external view returns (uint256) {\n        return address(this).balance;\n    }\n\n    function getSenderBalance() external view returns (uint256) {\n        return address(msg.sender).balance;\n    }\n\n    function getAllowance(address from, address who)\n        external\n        view\n        returns (uint256)\n    {\n        return allowance[from][who];\n    }\n\n    function setAllowance(address who, uint256 amount) external {\n        allowance[address(msg.sender)][who] = amount;\n    }\n}\n",
  "sourcePath": "/home/bob/polkadot-sdk-solochain-template/evm-tests/contracts/StateOverrideTest.sol",
  "compiler": {
    "name": "solc",
    "version": "0.8.25+commit.b61c2a91.Emscripten.clang"
  },
  "schemaVersion": "3.4.16",
  "updatedAt": "2025-05-20T19:29:48.027Z",
  "devdoc": {
    "kind": "dev",
    "methods": {},
    "version": 1
  },
  "userdoc": {
    "kind": "user",
    "methods": {
      "MAX_ALLOWED()": {
        "notice": "The maximum allowed value"
      }
    },
    "notice": "Smart contract to help test state override",
    "version": 1
  }
}