{
  "contractName": "StorageLoop",
  "abi": [
    {
      "inputs": [
        {
          "internalType": "address",
          "name": "",
          "type": "address"
        }
      ],
      "name": "map",
      "outputs": [
        {
          "internalType": "uint256",
          "name": "",
          "type": "uint256"
        }
      ],
      "stateMutability": "view",
      "type": "function"
    },
    {
      "inputs": [
        {
          "internalType": "uint16",
          "name": "n",
          "type": "uint16"
        },
        {
          "internalType": "address",
          "name": "_to",
          "type": "address"
        },
        {
          "internalType": "uint256",
          "name": "_amount",
          "type": "uint256"
        }
      ],
      "name": "storageLoop",
      "outputs": [],
      "stateMutability": "nonpayable",
      "type": "function"
    }
  ],
  "bytecode": "0x6080604052348015600e575f80fd5b506103108061001c5f395ff3fe608060405234801561000f575f80fd5b5060043610610034575f3560e01c8063a6a97dc114610038578063b721ef6e14610054575b5f80fd5b610052600480360381019061004d91906101d7565b610084565b005b61006e60048036038101906100699190610227565b6100fb565b60405161007b9190610261565b60405180910390f35b5f5b8361ffff168161ffff1610156100f557815f808573ffffffffffffffffffffffffffffffffffffffff1673ffffffffffffffffffffffffffffffffffffffff1681526020019081526020015f205f8282546100e191906102a7565b925050819055508080600101915050610086565b50505050565b5f602052805f5260405f205f915090505481565b5f80fd5b5f61ffff82169050919050565b61012981610113565b8114610133575f80fd5b50565b5f8135905061014481610120565b92915050565b5f73ffffffffffffffffffffffffffffffffffffffff82169050919050565b5f6101738261014a565b9050919050565b61018381610169565b811461018d575f80fd5b50565b5f8135905061019e8161017a565b92915050565b5f819050919050565b6101b6816101a4565b81146101c0575f80fd5b50565b5f813590506101d1816101ad565b92915050565b5f805f606084860312156101ee576101ed61010f565b5b5f6101fb86828701610136565b935050602061020c86828701610190565b925050604061021d868287016101c3565b9150509250925092565b5f6020828403121561023c5761023b61010f565b5b5f61024984828501610190565b91505092915050565b61025b816101a4565b82525050565b5f6020820190506102745f830184610252565b92915050565b7f4e487b71000000000000000000000000000000000000000000000000000000005f52601160045260245ffd5b5f6102b1826101a4565b91506102bc836101a4565b92508282019050808211156102d4576102d361027a565b5b9291505056fea26469706673582212208f23da59c8160038d4fb568aaa76f988c06700797796ac33d1c9e4ba5bc1cb7964736f6c63430008190033",
  "immutableReferences": {},
  "source": "// SPDX-License-Identifier: GPL-3.0\npragma solidity >=0.8.2 <0.9.0;\n\ncontract StorageLoop {\n    mapping(address => uint) public map;\n    \n    // n=1      30k\n    // n=10     37k\n    // n=100    100k\n    // n=250    205k\n    // n=500    380k\n    // n=1000   745k\n    function storageLoop(\n        uint16 n,\n        address _to,\n        uint _amount\n    ) public {\n        for (uint16 i = 0; i < n; i++) {\n            map[_to] += _amount;\n        }\n    }\n}",
  "sourcePath": "/home/bob/polkadot-sdk-solochain-template/evm-tests/contracts/StorageLoop.sol",
  "compiler": {
    "name": "solc",
    "version": "0.8.25+commit.b61c2a91.Emscripten.clang"
  },
  "schemaVersion": "3.4.16",
  "updatedAt": "2025-05-20T19:28:54.985Z",
  "devdoc": {
    "kind": "dev",
    "methods": {},
    "version": 1
  },
  "userdoc": {
    "kind": "user",
    "methods": {},
    "version": 1
  }
}