{
  "contractName": "Storage",
  "abi": [
    {
      "inputs": [
        {
          "internalType": "bytes32",
          "name": "key",
          "type": "bytes32"
        }
      ],
      "name": "getStorage",
      "outputs": [
        {
          "internalType": "bytes32",
          "name": "value",
          "type": "bytes32"
        }
      ],
      "stateMutability": "view",
      "type": "function"
    },
    {
      "inputs": [
        {
          "internalType": "bytes32",
          "name": "key",
          "type": "bytes32"
        },
        {
          "internalType": "bytes32",
          "name": "value",
          "type": "bytes32"
        }
      ],
      "name": "setStorage",
      "outputs": [],
      "stateMutability": "nonpayable",
      "type": "function"
    }
  ],
  "bytecode": "0x6080604052348015600e575f80fd5b506101938061001c5f395ff3fe608060405234801561000f575f80fd5b5060043610610034575f3560e01c80634ba664e7146100385780639b0b0fda14610068575b5f80fd5b610052600480360381019061004d91906100cc565b610084565b60405161005f9190610106565b60405180910390f35b610082600480360381019061007d919061011f565b61008e565b005b5f81549050919050565b8082555050565b5f80fd5b5f819050919050565b6100ab81610099565b81146100b5575f80fd5b50565b5f813590506100c6816100a2565b92915050565b5f602082840312156100e1576100e0610095565b5b5f6100ee848285016100b8565b91505092915050565b61010081610099565b82525050565b5f6020820190506101195f8301846100f7565b92915050565b5f806040838503121561013557610134610095565b5b5f610142858286016100b8565b9250506020610153858286016100b8565b915050925092905056fea264697066735822122061388c02bda2f84ce0494704a648d632a6f1c8c5096f817c9b3c51080957e31364736f6c63430008190033",
  "immutableReferences": {},
  "source": "// SPDX-License-Identifier: MIT \n\npragma solidity ^0.8.2;\n\ncontract Storage {\n  function getStorage(bytes32 key) public view returns (bytes32 value) {\n      assembly {\n          value := sload(key)\n      }\n  }\n  function setStorage(bytes32 key, bytes32 value) public {\n      assembly {\n          sstore(key, value)\n      }\n  }\n}\n",
  "sourcePath": "/home/bob/polkadot-sdk-solochain-template/evm-tests/contracts/Storage.sol",
  "compiler": {
    "name": "solc",
    "version": "0.8.25+commit.b61c2a91.Emscripten.clang"
  },
  "schemaVersion": "3.4.16",
  "updatedAt": "2025-05-20T19:29:55.737Z",
  "devdoc": {
    "kind": "dev",
    "methods": {},
    "version": 1
  },
  "userdoc": {
    "kind": "user",
    "methods": {},
    "version": 1
  }
}