{
  "contractName": "Test",
  "abi": [
    {
      "inputs": [
        {
          "internalType": "uint256",
          "name": "a",
          "type": "uint256"
        }
      ],
      "name": "multiply",
      "outputs": [
        {
          "internalType": "uint256",
          "name": "d",
          "type": "uint256"
        }
      ],
      "stateMutability": "pure",
      "type": "function"
    },
    {
      "inputs": [],
      "name": "gasLimit",
      "outputs": [
        {
          "internalType": "uint256",
          "name": "",
          "type": "uint256"
        }
      ],
      "stateMutability": "view",
      "type": "function"
    },
    {
      "inputs": [],
      "name": "currentBlock",
      "outputs": [
        {
          "internalType": "uint256",
          "name": "",
          "type": "uint256"
        }
      ],
      "stateMutability": "view",
      "type": "function"
    },
    {
      "inputs": [
        {
          "internalType": "uint256",
          "name": "number",
          "type": "uint256"
        }
      ],
      "name": "blockHash",
      "outputs": [
        {
          "internalType": "bytes32",
          "name": "",
          "type": "bytes32"
        }
      ],
      "stateMutability": "view",
      "type": "function"
    }
  ],
  "bytecode": "0x6080604052348015600e575f80fd5b506102768061001c5f395ff3fe608060405234801561000f575f80fd5b506004361061004a575f3560e01c806385df51fd1461004e578063c6888fa11461007e578063e12ed13c146100ae578063f68016b7146100cc575b5f80fd5b6100686004803603810190610063919061014e565b6100ea565b6040516100759190610191565b60405180910390f35b6100986004803603810190610093919061014e565b6100f4565b6040516100a591906101b9565b60405180910390f35b6100b6610109565b6040516100c391906101b9565b60405180910390f35b6100d4610110565b6040516100e191906101b9565b60405180910390f35b5f81409050919050565b5f60078261010291906101ff565b9050919050565b5f43905090565b5f45905090565b5f80fd5b5f819050919050565b61012d8161011b565b8114610137575f80fd5b50565b5f8135905061014881610124565b92915050565b5f6020828403121561016357610162610117565b5b5f6101708482850161013a565b91505092915050565b5f819050919050565b61018b81610179565b82525050565b5f6020820190506101a45f830184610182565b92915050565b6101b38161011b565b82525050565b5f6020820190506101cc5f8301846101aa565b92915050565b7f4e487b71000000000000000000000000000000000000000000000000000000005f52601160045260245ffd5b5f6102098261011b565b91506102148361011b565b92508282026102228161011b565b91508282048414831517610239576102386101d2565b5b509291505056fea2646970667358221220de775b06ff637500ad151c2161736dcf37b3d857e4c48cb35225b947304d5e3d64736f6c63430008190033",
  "immutableReferences": {},
  "source": "pragma solidity >=0.8.2 <0.9.0;\n\ncontract Test {\n    function multiply(uint a) public pure returns(uint d) {\n        return a * 7;\n    }\n    function gasLimit() public view returns(uint) {\n        return block.gaslimit;\n    }\n    function currentBlock() public view returns(uint) {\n        return block.number;\n    }\n    function blockHash(uint number) public view returns(bytes32) {\n        return blockhash(number);\n    }\n}\n",
  "sourcePath": "/home/bob/hypertensor-evm-ow/evm-tests/contracts/Test.sol",
  "compiler": {
    "name": "solc",
    "version": "0.8.25+commit.b61c2a91.Emscripten.clang"
  },
  "schemaVersion": "3.4.16",
  "updatedAt": "2025-09-23T03:00:33.356Z",
  "devdoc": {
    "kind": "dev",
    "methods": {},
    "version": 1
  },
  "userdoc": {
    "kind": "user",
    "methods": {},
    "version": 1
  }
}